{
  "contractName": "Scorecard",
  "abi": [
    {
      "inputs": [],
      "payable": false,
      "stateMutability": "nonpayable",
      "type": "constructor"
    },
    {
      "anonymous": false,
      "inputs": [
        {
          "indexed": false,
          "internalType": "string",
          "name": "_studentFirstName",
          "type": "string"
        },
        {
          "indexed": false,
          "internalType": "string",
          "name": "_studentLastName",
          "type": "string"
        },
        {
          "indexed": false,
          "internalType": "uint256",
          "name": "_studentId",
          "type": "uint256"
        }
      ],
      "name": "studentAdded",
      "type": "event"
    },
    {
      "anonymous": false,
      "inputs": [
        {
          "indexed": false,
          "internalType": "uint256",
          "name": "_studentId",
          "type": "uint256"
        },
        {
          "indexed": false,
          "internalType": "uint256",
          "name": "_englishMarks",
          "type": "uint256"
        },
        {
          "indexed": false,
          "internalType": "uint256",
          "name": "_mathsMarks",
          "type": "uint256"
        },
        {
          "indexed": false,
          "internalType": "uint256",
          "name": "_scienceMarks",
          "type": "uint256"
        }
      ],
      "name": "studentScoreRecorder",
      "type": "event"
    },
    {
      "constant": true,
      "inputs": [],
      "name": "classTeacher",
      "outputs": [
        {
          "internalType": "address",
          "name": "",
          "type": "address"
        }
      ],
      "payable": false,
      "stateMutability": "view",
      "type": "function"
    },
    {
      "constant": false,
      "inputs": [
        {
          "internalType": "string",
          "name": "_studentFirstName",
          "type": "string"
        },
        {
          "internalType": "string",
          "name": "_studentLastName",
          "type": "string"
        }
      ],
      "name": "addStudentDetails",
      "outputs": [],
      "payable": false,
      "stateMutability": "nonpayable",
      "type": "function"
    },
    {
      "constant": false,
      "inputs": [
        {
          "internalType": "uint256",
          "name": "_studentId",
          "type": "uint256"
        },
        {
          "internalType": "uint256",
          "name": "_englishMarks",
          "type": "uint256"
        },
        {
          "internalType": "uint256",
          "name": "_mathsMarks",
          "type": "uint256"
        },
        {
          "internalType": "uint256",
          "name": "_scienceMarks",
          "type": "uint256"
        }
      ],
      "name": "addStudentScores",
      "outputs": [],
      "payable": false,
      "stateMutability": "nonpayable",
      "type": "function"
    }
  ],
  "bytecode": "0x6080604052600060015534801561001557600080fd5b50336000806101000a81548173ffffffffffffffffffffffffffffffffffffffff021916908373ffffffffffffffffffffffffffffffffffffffff1602179055506106be806100656000396000f3fe608060405234801561001057600080fd5b50600436106100415760003560e01c80634c94ebbb14610046578063a24232c514610092578063be645d0a146101e4575b600080fd5b6100906004803603608081101561005c57600080fd5b810190808035906020019092919080359060200190929190803590602001909291908035906020019092919050505061022e565b005b6101e2600480360360408110156100a857600080fd5b81019080803590602001906401000000008111156100c557600080fd5b8201836020820111156100d757600080fd5b803590602001918460018302840111640100000000831117156100f957600080fd5b91908080601f016020809104026020016040519081016040528093929190818152602001838380828437600081840152601f19601f8201169050808301925050505050505091929192908035906020019064010000000081111561015c57600080fd5b82018360208201111561016e57600080fd5b8035906020019184600183028401116401000000008311171561019057600080fd5b91908080601f016020809104026020016040519081016040528093929190818152602001838380828437600081840152601f19601f820116905080830192505050505050509192919290505050610366565b005b6101ec61058d565b604051808273ffffffffffffffffffffffffffffffffffffffff1673ffffffffffffffffffffffffffffffffffffffff16815260200191505060405180910390f35b338073ffffffffffffffffffffffffffffffffffffffff166000809054906101000a900473ffffffffffffffffffffffffffffffffffffffff1673ffffffffffffffffffffffffffffffffffffffff16146102d4576040517f08c379a00000000000000000000000000000000000000000000000000000000081526004018080602001828103825260328152602001806106586032913960400191505060405180910390fd5b60006003600087815260200190815260200160002090508481600101819055508381600201819055508281600301819055508581600001819055507ffb10f198b20126c33d24c2763e59f87f7d2267f29f6f86da3e31409d4979f181868686866040518085815260200184815260200183815260200182815260200194505050505060405180910390a1505050505050565b338073ffffffffffffffffffffffffffffffffffffffff166000809054906101000a900473ffffffffffffffffffffffffffffffffffffffff1673ffffffffffffffffffffffffffffffffffffffff161461040c576040517f08c379a00000000000000000000000000000000000000000000000000000000081526004018080602001828103825260328152602001806106586032913960400191505060405180910390fd5b600060026000600154815260200190815260200160002090508381600001908051906020019061043d9291906105b2565b50828160010190805190602001906104569291906105b2565b5060015481600201819055507faee3b08f60bd17d98cf5318d54d8104d3f63cd7878cb5ee81a3ab7d3c8ef1d3d8384600154604051808060200180602001848152602001838103835286818151815260200191508051906020019080838360005b838110156104d25780820151818401526020810190506104b7565b50505050905090810190601f1680156104ff5780820380516001836020036101000a031916815260200191505b50838103825285818151815260200191508051906020019080838360005b8381101561053857808201518184015260208101905061051d565b50505050905090810190601f1680156105655780820380516001836020036101000a031916815260200191505b509550505050505060405180910390a160016000815480929190600101919050555050505050565b6000809054906101000a900473ffffffffffffffffffffffffffffffffffffffff1681565b828054600181600116156101000203166002900490600052602060002090601f016020900481019282601f106105f357805160ff1916838001178555610621565b82800160010185558215610621579182015b82811115610620578251825591602001919060010190610605565b5b50905061062e9190610632565b5090565b61065491905b80821115610650576000816000905550600101610638565b5090565b9056fe4f6e6c792074686520636c6173732074656163686572206861732061636365737320746f20746869732066756e6374696f6ea265627a7a7231582032eacb8f6222c281d531ba4afb4e645efd9837e31bb626bc84e5ba83370918d564736f6c63430005100032",
  "source": "// SPDX-License-Identifier: UNLICENSED\npragma solidity >=0.4.0 <0.9.0;\n\ncontract Scorecard {\n    address public classTeacher;\n    uint256 studentCount = 0;\n\n    constructor() public {\n        classTeacher = msg.sender;\n    }\n\n    modifier onlyClassTeacher(address _classTeacher) {\n        require(\n            classTeacher == _classTeacher,\n            \"Only the class teacher has access to this function\"\n        );\n        _;\n    }\n\n    struct StudentDetails {\n        string studentFirstName;\n        string studentLastName;\n        uint256 id;\n    }\n\n    struct Score {\n        uint256 studentId;\n        uint256 englishMarks;\n        uint256 mathsMarks;\n        uint256 scienceMarks;\n    }\n\n    mapping(uint256 => StudentDetails) students;\n    mapping(uint256 => Score) scores;\n\n    event studentAdded(\n        string _studentFirstName,\n        string _studentLastName,\n        uint256 _studentId\n    );\n    event studentScoreRecorder(\n        uint256 _studentId,\n        uint256 _englishMarks,\n        uint256 _mathsMarks,\n        uint256 _scienceMarks\n    );\n\n    function addStudentDetails(\n        string memory _studentFirstName,\n        string memory _studentLastName\n    ) public onlyClassTeacher(msg.sender) {\n        StudentDetails storage studentObj = students[studentCount];\n        studentObj.studentFirstName = _studentFirstName;\n        studentObj.studentLastName = _studentLastName;\n        studentObj.id = studentCount;\n        emit studentAdded(_studentLastName, _studentLastName, studentCount);\n        studentCount++;\n    }\n\n    function addStudentScores(\n        uint256 _studentId,\n        uint256 _englishMarks,\n        uint256 _mathsMarks,\n        uint256 _scienceMarks\n    ) public onlyClassTeacher(msg.sender) {\n        Score storage scoreObject = scores[_studentId];\n        scoreObject.englishMarks = _englishMarks;\n        scoreObject.mathsMarks = _mathsMarks;\n        scoreObject.scienceMarks = _scienceMarks;\n        scoreObject.studentId = _studentId;\n        emit studentScoreRecorder(\n            _studentId,\n            _englishMarks,\n            _mathsMarks,\n            _scienceMarks\n        );\n    }\n}\n",
  "sourcePath": "/Users/chazzard/Documents/chazzard_repos/solidity_projects/MyFirstContract/contracts/Scorecard.sol",
  "compiler": {
    "name": "solc",
    "version": "0.5.16+commit.9c3226ce.Emscripten.clang"
  },
  "schemaVersion": "3.4.4",
  "updatedAt": "2022-01-21T01:52:54.236Z",
  "networkType": "ethereum",
  "devdoc": {
    "methods": {}
  },
  "userdoc": {
    "methods": {}
  }
}